{
  "contractName": "Admin",
  "abi": [
    {
      "inputs": [],
      "stateMutability": "nonpayable",
      "type": "constructor"
    },
    {
      "inputs": [],
      "name": "owner",
      "outputs": [
        {
          "internalType": "address",
          "name": "",
          "type": "address"
        }
      ],
      "stateMutability": "view",
      "type": "function",
      "constant": true
    },
    {
      "inputs": [
        {
          "internalType": "address",
          "name": "EthAddress",
          "type": "address"
        },
        {
          "internalType": "string",
          "name": "Name",
          "type": "string"
        },
        {
          "internalType": "string",
          "name": "Location",
          "type": "string"
        },
        {
          "internalType": "string",
          "name": "Description",
          "type": "string"
        },
        {
          "internalType": "uint256",
          "name": "Role",
          "type": "uint256"
        }
      ],
      "name": "registerUser",
      "outputs": [],
      "stateMutability": "nonpayable",
      "type": "function"
    },
    {
      "inputs": [
        {
          "internalType": "address",
          "name": "_employeeAddress",
          "type": "address"
        }
      ],
      "name": "isEmployee",
      "outputs": [
        {
          "internalType": "bool",
          "name": "",
          "type": "bool"
        }
      ],
      "stateMutability": "view",
      "type": "function",
      "constant": true
    },
    {
      "inputs": [
        {
          "internalType": "address",
          "name": "_organizationEndorser",
          "type": "address"
        }
      ],
      "name": "isOrganizationEndorser",
      "outputs": [
        {
          "internalType": "bool",
          "name": "",
          "type": "bool"
        }
      ],
      "stateMutability": "view",
      "type": "function",
      "constant": true
    },
    {
      "inputs": [],
      "name": "employeeCount",
      "outputs": [
        {
          "internalType": "uint256",
          "name": "",
          "type": "uint256"
        }
      ],
      "stateMutability": "view",
      "type": "function",
      "constant": true
    },
    {
      "inputs": [
        {
          "internalType": "address",
          "name": "_employee",
          "type": "address"
        }
      ],
      "name": "getEmployeeContractByAddress",
      "outputs": [
        {
          "internalType": "address",
          "name": "",
          "type": "address"
        }
      ],
      "stateMutability": "view",
      "type": "function",
      "constant": true
    },
    {
      "inputs": [
        {
          "internalType": "uint256",
          "name": "index",
          "type": "uint256"
        }
      ],
      "name": "getEmployeeContractByIndex",
      "outputs": [
        {
          "internalType": "address",
          "name": "",
          "type": "address"
        }
      ],
      "stateMutability": "view",
      "type": "function",
      "constant": true
    },
    {
      "inputs": [],
      "name": "OrganizationEndorserCount",
      "outputs": [
        {
          "internalType": "uint256",
          "name": "",
          "type": "uint256"
        }
      ],
      "stateMutability": "view",
      "type": "function",
      "constant": true
    },
    {
      "inputs": [
        {
          "internalType": "address",
          "name": "_organization",
          "type": "address"
        }
      ],
      "name": "getOrganizationContractByAddress",
      "outputs": [
        {
          "internalType": "address",
          "name": "",
          "type": "address"
        }
      ],
      "stateMutability": "view",
      "type": "function",
      "constant": true
    },
    {
      "inputs": [
        {
          "internalType": "uint256",
          "name": "index",
          "type": "uint256"
        }
      ],
      "name": "getOrganizationContractByIndex",
      "outputs": [
        {
          "internalType": "address",
          "name": "",
          "type": "address"
        }
      ],
      "stateMutability": "view",
      "type": "function",
      "constant": true
    }
  ],
  "bytecode": "0x608060405234801561001057600080fd5b50336000806101000a81548173ffffffffffffffffffffffffffffffffffffffff021916908373ffffffffffffffffffffffffffffffffffffffff160217905550615560806100606000396000f3fe60806040523480156200001157600080fd5b5060043610620000ac5760003560e01c80638da5cb5b116200006f5780638da5cb5b14620001a95780639047bf5814620001cb578063bf5a94b614620001ed578063c684ba28146200020f578063ea66543f146200024557620000ac565b806315d809f914620000b157806316ab8a3514620000e7578063323ddfc4146200011d578063447a81fe14620001535780636f93dc561462000189575b600080fd5b620000cf6004803603810190620000c99190620008d0565b6200027b565b604051620000de919062000947565b60405180910390f35b620001056004803603810190620000ff919062000995565b620002d0565b604051620001149190620009e4565b60405180910390f35b6200013b600480360381019062000135919062000995565b62000368565b6040516200014a919062000947565b60405180910390f35b6200017160048036038101906200016b9190620008d0565b620003d1565b60405162000180919062000947565b60405180910390f35b620001a76004803603810190620001a1919062000b63565b62000426565b005b620001b362000726565b604051620001c2919062000947565b60405180910390f35b620001d56200074a565b604051620001e4919062000c59565b60405180910390f35b620001f762000757565b60405162000206919062000c59565b60405180910390f35b6200022d600480360381019062000227919062000995565b62000764565b6040516200023c919062000947565b60405180910390f35b6200026360048036038101906200025d919062000995565b620007cd565b604051620002729190620009e4565b60405180910390f35b6000620002c96004838154811062000298576200029762000c76565b5b9060005260206000200160009054906101000a900473ffffffffffffffffffffffffffffffffffffffff1662000764565b9050919050565b60008073ffffffffffffffffffffffffffffffffffffffff16600260008473ffffffffffffffffffffffffffffffffffffffff1673ffffffffffffffffffffffffffffffffffffffff16815260200190815260200160002060009054906101000a900473ffffffffffffffffffffffffffffffffffffffff1673ffffffffffffffffffffffffffffffffffffffff1614159050919050565b6000600160008373ffffffffffffffffffffffffffffffffffffffff1673ffffffffffffffffffffffffffffffffffffffff16815260200190815260200160002060009054906101000a900473ffffffffffffffffffffffffffffffffffffffff169050919050565b60006200041f60038381548110620003ee57620003ed62000c76565b5b9060005260206000200160009054906101000a900473ffffffffffffffffffffffffffffffffffffffff1662000368565b9050919050565b60008054906101000a900473ffffffffffffffffffffffffffffffffffffffff1673ffffffffffffffffffffffffffffffffffffffff163373ffffffffffffffffffffffffffffffffffffffff16146200047f57600080fd5b60018103620005d65760008060009054906101000a900473ffffffffffffffffffffffffffffffffffffffff1686868686604051620004be9062000865565b620004ce95949392919062000d2e565b604051809103906000f080158015620004eb573d6000803e3d6000fd5b50905080600160008873ffffffffffffffffffffffffffffffffffffffff1673ffffffffffffffffffffffffffffffffffffffff16815260200190815260200160002060006101000a81548173ffffffffffffffffffffffffffffffffffffffff021916908373ffffffffffffffffffffffffffffffffffffffff1602179055506003869080600181540180825580915050600190039060005260206000200160009091909190916101000a81548173ffffffffffffffffffffffffffffffffffffffff021916908373ffffffffffffffffffffffffffffffffffffffff160217905550506200071f565b60008060009054906101000a900473ffffffffffffffffffffffffffffffffffffffff16868686866040516200060c9062000873565b6200061c95949392919062000d2e565b604051809103906000f08015801562000639573d6000803e3d6000fd5b50905080600260008873ffffffffffffffffffffffffffffffffffffffff1673ffffffffffffffffffffffffffffffffffffffff16815260200190815260200160002060006101000a81548173ffffffffffffffffffffffffffffffffffffffff021916908373ffffffffffffffffffffffffffffffffffffffff1602179055506004869080600181540180825580915050600190039060005260206000200160009091909190916101000a81548173ffffffffffffffffffffffffffffffffffffffff021916908373ffffffffffffffffffffffffffffffffffffffff160217905550505b5050505050565b60008054906101000a900473ffffffffffffffffffffffffffffffffffffffff1681565b6000600380549050905090565b6000600480549050905090565b6000600260008373ffffffffffffffffffffffffffffffffffffffff1673ffffffffffffffffffffffffffffffffffffffff16815260200190815260200160002060009054906101000a900473ffffffffffffffffffffffffffffffffffffffff169050919050565b60008073ffffffffffffffffffffffffffffffffffffffff16600160008473ffffffffffffffffffffffffffffffffffffffff1673ffffffffffffffffffffffffffffffffffffffff16815260200190815260200160002060009054906101000a900473ffffffffffffffffffffffffffffffffffffffff1673ffffffffffffffffffffffffffffffffffffffff1614159050919050565b6139aa8062000da183390190565b610de0806200474b83390190565b6000604051905090565b600080fd5b600080fd5b6000819050919050565b620008aa8162000895565b8114620008b657600080fd5b50565b600081359050620008ca816200089f565b92915050565b600060208284031215620008e957620008e86200088b565b5b6000620008f984828501620008b9565b91505092915050565b600073ffffffffffffffffffffffffffffffffffffffff82169050919050565b60006200092f8262000902565b9050919050565b620009418162000922565b82525050565b60006020820190506200095e600083018462000936565b92915050565b6200096f8162000922565b81146200097b57600080fd5b50565b6000813590506200098f8162000964565b92915050565b600060208284031215620009ae57620009ad6200088b565b5b6000620009be848285016200097e565b91505092915050565b60008115159050919050565b620009de81620009c7565b82525050565b6000602082019050620009fb6000830184620009d3565b92915050565b600080fd5b600080fd5b6000601f19601f8301169050919050565b7f4e487b7100000000000000000000000000000000000000000000000000000000600052604160045260246000fd5b62000a568262000a0b565b810181811067ffffffffffffffff8211171562000a785762000a7762000a1c565b5b80604052505050565b600062000a8d62000881565b905062000a9b828262000a4b565b919050565b600067ffffffffffffffff82111562000abe5762000abd62000a1c565b5b62000ac98262000a0b565b9050602081019050919050565b82818337600083830152505050565b600062000afc62000af68462000aa0565b62000a81565b90508281526020810184848401111562000b1b5762000b1a62000a06565b5b62000b2884828562000ad6565b509392505050565b600082601f83011262000b485762000b4762000a01565b5b813562000b5a84826020860162000ae5565b91505092915050565b600080600080600060a0868803121562000b825762000b816200088b565b5b600062000b92888289016200097e565b955050602086013567ffffffffffffffff81111562000bb65762000bb562000890565b5b62000bc48882890162000b30565b945050604086013567ffffffffffffffff81111562000be85762000be762000890565b5b62000bf68882890162000b30565b935050606086013567ffffffffffffffff81111562000c1a5762000c1962000890565b5b62000c288882890162000b30565b925050608062000c3b88828901620008b9565b9150509295509295909350565b62000c538162000895565b82525050565b600060208201905062000c70600083018462000c48565b92915050565b7f4e487b7100000000000000000000000000000000000000000000000000000000600052603260045260246000fd5b600081519050919050565b600082825260208201905092915050565b60005b8381101562000ce157808201518184015260208101905062000cc4565b60008484015250505050565b600062000cfa8262000ca5565b62000d06818562000cb0565b935062000d1881856020860162000cc1565b62000d238162000a0b565b840191505092915050565b600060a08201905062000d45600083018862000936565b62000d54602083018762000936565b818103604083015262000d68818662000ced565b9050818103606083015262000d7e818562000ced565b9050818103608083015262000d94818462000ced565b9050969550505050505056fe60806040523480156200001157600080fd5b50604051620039aa380380620039aa8339818101604052810190620000379190620002f9565b846000806101000a81548173ffffffffffffffffffffffffffffffffffffffff021916908373ffffffffffffffffffffffffffffffffffffffff160217905550826006908162000088919062000629565b5083600160006101000a81548173ffffffffffffffffffffffffffffffffffffffff021916908373ffffffffffffffffffffffffffffffffffffffff1602179055508160029081620000db919062000629565b508060039081620000ed919062000629565b506000600581905550505050505062000710565b6000604051905090565b600080fd5b600080fd5b600073ffffffffffffffffffffffffffffffffffffffff82169050919050565b6000620001428262000115565b9050919050565b620001548162000135565b81146200016057600080fd5b50565b600081519050620001748162000149565b92915050565b600080fd5b600080fd5b6000601f19601f8301169050919050565b7f4e487b7100000000000000000000000000000000000000000000000000000000600052604160045260246000fd5b620001cf8262000184565b810181811067ffffffffffffffff82111715620001f157620001f062000195565b5b80604052505050565b60006200020662000101565b9050620002148282620001c4565b919050565b600067ffffffffffffffff82111562000237576200023662000195565b5b620002428262000184565b9050602081019050919050565b60005b838110156200026f57808201518184015260208101905062000252565b60008484015250505050565b6000620002926200028c8462000219565b620001fa565b905082815260208101848484011115620002b157620002b06200017f565b5b620002be8482856200024f565b509392505050565b600082601f830112620002de57620002dd6200017a565b5b8151620002f08482602086016200027b565b91505092915050565b600080600080600060a086880312156200031857620003176200010b565b5b6000620003288882890162000163565b95505060206200033b8882890162000163565b945050604086015167ffffffffffffffff8111156200035f576200035e62000110565b5b6200036d88828901620002c6565b935050606086015167ffffffffffffffff81111562000391576200039062000110565b5b6200039f88828901620002c6565b925050608086015167ffffffffffffffff811115620003c357620003c262000110565b5b620003d188828901620002c6565b9150509295509295909350565b600081519050919050565b7f4e487b7100000000000000000000000000000000000000000000000000000000600052602260045260246000fd5b600060028204905060018216806200043157607f821691505b602082108103620004475762000446620003e9565b5b50919050565b60008190508160005260206000209050919050565b60006020601f8301049050919050565b600082821b905092915050565b600060088302620004b17fffffffffffffffffffffffffffffffffffffffffffffffffffffffffffffffff8262000472565b620004bd868362000472565b95508019841693508086168417925050509392505050565b6000819050919050565b6000819050919050565b60006200050a62000504620004fe84620004d5565b620004df565b620004d5565b9050919050565b6000819050919050565b6200052683620004e9565b6200053e620005358262000511565b8484546200047f565b825550505050565b600090565b6200055562000546565b620005628184846200051b565b505050565b5b818110156200058a576200057e6000826200054b565b60018101905062000568565b5050565b601f821115620005d957620005a3816200044d565b620005ae8462000462565b81016020851015620005be578190505b620005d6620005cd8562000462565b83018262000567565b50505b505050565b600082821c905092915050565b6000620005fe60001984600802620005de565b1980831691505092915050565b6000620006198383620005eb565b9150826002028217905092915050565b6200063482620003de565b67ffffffffffffffff81111562000650576200064f62000195565b5b6200065c825462000418565b620006698282856200058e565b600060209050601f831160018114620006a157600084156200068c578287015190505b6200069885826200060b565b86555062000708565b601f198416620006b1866200044d565b60005b82811015620006db57848901518255600182019150602085019450602081019050620006b4565b86831015620006fb5784890151620006f7601f891682620005eb565b8355505b6001600288020188555050505b505050505050565b61328a80620007206000396000f3fe608060405234801561001057600080fd5b50600436106101425760003560e01c8063c07f7d16116100b8578063eda3467c1161007c578063eda3467c14610364578063f1d9efb214610380578063f5e616a61461039c578063fc017f25146103a6578063fdb10361146103c2578063fee7989e146103de57610142565b8063c07f7d16146102be578063cf6431c6146102da578063d57e0ad6146102f6578063d862ae871461032c578063e26017511461034857610142565b80636212fa021161010a5780636212fa02146101df578063645f29a8146101fd5780637b1d2d00146102315780637c067d8d1461024d57806394fb3da71461027d578063a3e3bf7d1461029b57610142565b806305f53b29146101475780632186879c14610165578063444fc6621461018157806344afd134146101b757806344f034ae146101d5575b600080fd5b61014f610412565b60405161015c9190612540565b60405180910390f35b61017f600480360381019061017a91906126b5565b61041f565b005b61019b6004803603810190610196919061272a565b6104e4565b6040516101ae9796959493929190612832565b60405180910390f35b6101bf6105b9565b6040516101cc9190612540565b60405180910390f35b6101dd6105c6565b005b6101e76106be565b6040516101f49190612540565b60405180910390f35b6102176004803603810190610212919061272a565b6106cb565b6040516102289594939291906128b6565b60405180910390f35b61024b6004803603810190610246919061294a565b61072e565b005b6102676004803603810190610262919061272a565b610901565b6040516102749190612540565b60405180910390f35b610285610925565b6040516102929190612540565b60405180910390f35b6102a3610932565b6040516102b5969594939291906129b9565b60405180910390f35b6102d860048036038101906102d39190612a2f565b610b22565b005b6102f460048036038101906102ef91906126b5565b610d3e565b005b610310600480360381019061030b919061272a565b610df4565b6040516103239796959493929190612aea565b60405180910390f35b61034660048036038101906103419190612b75565b610e61565b005b610362600480360381019061035d9190612bed565b611031565b005b61037e600480360381019061037991906126b5565b6110e9565b005b61039a60048036038101906103959190612c1a565b6111ae565b005b6103a461141b565b005b6103c060048036038101906103bb9190612d05565b611513565b005b6103dc60048036038101906103d79190612dac565b6115a2565b005b6103f860048036038101906103f3919061272a565b61170c565b604051610409959493929190612e37565b60405180910390f35b6000600880549050905090565b600160009054906101000a900473ffffffffffffffffffffffffffffffffffffffff1673ffffffffffffffffffffffffffffffffffffffff163373ffffffffffffffffffffffffffffffffffffffff161461047957600080fd5b6009816040516104899190612ecd565b908152602001604051809103902060030160019054906101000a900460ff16156009826040516104b99190612ecd565b908152602001604051809103902060030160016101000a81548160ff02191690831515021790555050565b606060006060600080606060006105a06008898154811061050857610507612ee4565b5b90600052602060002001805461051d90612f42565b80601f016020809104026020016040519081016040528092919081815260200182805461054990612f42565b80156105965780601f1061056b57610100808354040283529160200191610596565b820191906000526020600020905b81548152906001019060200180831161057957829003601f168201915b50505050506117d6565b9650965096509650965096509650919395979092949650565b6000600a80549050905090565b600073ffffffffffffffffffffffffffffffffffffffff16600b60003373ffffffffffffffffffffffffffffffffffffffff1673ffffffffffffffffffffffffffffffffffffffff16815260200190815260200160002060010160009054906101000a900473ffffffffffffffffffffffffffffffffffffffff1673ffffffffffffffffffffffffffffffffffffffff160361066157600080fd5b6001600b60003373ffffffffffffffffffffffffffffffffffffffff1673ffffffffffffffffffffffffffffffffffffffff16815260200190815260200160002060040160006101000a81548160ff021916908315150217905550565b6000600e80549050905090565b60006060806000606061071b600e87815481106106eb576106ea612ee4565b5b9060005260206000200160009054906101000a900473ffffffffffffffffffffffffffffffffffffffff16611ac5565b9450945094509450945091939590929450565b600160009054906101000a900473ffffffffffffffffffffffffffffffffffffffff1673ffffffffffffffffffffffffffffffffffffffff163373ffffffffffffffffffffffffffffffffffffffff161461078857600080fd5b6107906123e9565b83816000018190525082816020019073ffffffffffffffffffffffffffffffffffffffff16908173ffffffffffffffffffffffffffffffffffffffff168152505081816040018181525050600081606001901515908115158152505060018160800190151590811515815250508060098560405161080e9190612ecd565b90815260200160405180910390206000820151816000019081610831919061311f565b5060208201518160010160006101000a81548173ffffffffffffffffffffffffffffffffffffffff021916908373ffffffffffffffffffffffffffffffffffffffff1602179055506040820151816002015560608201518160030160006101000a81548160ff02191690831515021790555060808201518160030160016101000a81548160ff021916908315150217905550905050600a849080600181540180825580915050600190039060005260206000200160009091909190915090816108fa919061311f565b5050505050565b6004818154811061091157600080fd5b906000526020600020016000915090505481565b6000600c80549050905090565b60006060806060600080600160009054906101000a900473ffffffffffffffffffffffffffffffffffffffff16600660026003600060055484805461097690612f42565b80601f01602080910402602001604051908101604052809291908181526020018280546109a290612f42565b80156109ef5780601f106109c4576101008083540402835291602001916109ef565b820191906000526020600020905b8154815290600101906020018083116109d257829003601f168201915b50505050509450838054610a0290612f42565b80601f0160208091040260200160405190810160405280929190818152602001828054610a2e90612f42565b8015610a7b5780601f10610a5057610100808354040283529160200191610a7b565b820191906000526020600020905b815481529060010190602001808311610a5e57829003601f168201915b50505050509350828054610a8e90612f42565b80601f0160208091040260200160405190810160405280929190818152602001828054610aba90612f42565b8015610b075780601f10610adc57610100808354040283529160200191610b07565b820191906000526020600020905b815481529060010190602001808311610aea57829003601f168201915b50505050509250955095509550955095509550909192939495565b600160009054906101000a900473ffffffffffffffffffffffffffffffffffffffff1673ffffffffffffffffffffffffffffffffffffffff163373ffffffffffffffffffffffffffffffffffffffff1614610b7c57600080fd5b610b84612432565b84816000019073ffffffffffffffffffffffffffffffffffffffff16908173ffffffffffffffffffffffffffffffffffffffff1681525050838160200181905250828160400181905250600081606001901515908115158152505081816080018190525080600d60008773ffffffffffffffffffffffffffffffffffffffff1673ffffffffffffffffffffffffffffffffffffffff16815260200190815260200160002060008201518160000160006101000a81548173ffffffffffffffffffffffffffffffffffffffff021916908373ffffffffffffffffffffffffffffffffffffffff1602179055506020820151816001019081610c84919061311f565b506040820151816002019081610c9a919061311f565b5060608201518160030160006101000a81548160ff0219169083151502179055506080820151816004019081610cd0919061311f565b50905050600e859080600181540180825580915050600190039060005260206000200160009091909190916101000a81548173ffffffffffffffffffffffffffffffffffffffff021916908373ffffffffffffffffffffffffffffffffffffffff1602179055505050505050565b600981604051610d4e9190612ecd565b908152602001604051809103902060010160009054906101000a900473ffffffffffffffffffffffffffffffffffffffff1673ffffffffffffffffffffffffffffffffffffffff163373ffffffffffffffffffffffffffffffffffffffff1614610db757600080fd5b6001600982604051610dc99190612ecd565b908152602001604051809103902060030160006101000a81548160ff02191690831515021790555050565b60606000606080600060606000610e48600c8981548110610e1857610e17612ee4565b5b9060005260206000200160009054906101000a900473ffffffffffffffffffffffffffffffffffffffff16611dfe565b9650965096509650965096509650919395979092949650565b600160009054906101000a900473ffffffffffffffffffffffffffffffffffffffff1673ffffffffffffffffffffffffffffffffffffffff163373ffffffffffffffffffffffffffffffffffffffff1614610ebb57600080fd5b610ec3612479565b8281600001819052508181604001819052506000816020018181525050600081606001901515908115158152505060018160c001901515908115158152505080600784604051610f139190612ecd565b90815260200160405180910390206000820151816000019081610f36919061311f565b50602082015181600101556040820151816002019081610f56919061311f565b5060608201518160030160006101000a81548160ff02191690831515021790555060808201518160030160016101000a81548173ffffffffffffffffffffffffffffffffffffffff021916908373ffffffffffffffffffffffffffffffffffffffff16021790555060a0820151816004019081610fd3919061311f565b5060c08201518160050160006101000a81548160ff02191690831515021790555090505060088390806001815401808255809150506001900390600052602060002001600090919091909150908161102b919061311f565b50505050565b600160009054906101000a900473ffffffffffffffffffffffffffffffffffffffff1673ffffffffffffffffffffffffffffffffffffffff163373ffffffffffffffffffffffffffffffffffffffff161461108b57600080fd5b6000600b60008373ffffffffffffffffffffffffffffffffffffffff1673ffffffffffffffffffffffffffffffffffffffff16815260200190815260200160002060060160006101000a81548160ff02191690831515021790555050565b600160009054906101000a900473ffffffffffffffffffffffffffffffffffffffff1673ffffffffffffffffffffffffffffffffffffffff163373ffffffffffffffffffffffffffffffffffffffff161461114357600080fd5b6007816040516111539190612ecd565b908152602001604051809103902060050160009054906101000a900460ff16156007826040516111839190612ecd565b908152602001604051809103902060050160006101000a81548160ff02191690831515021790555050565b600160009054906101000a900473ffffffffffffffffffffffffffffffffffffffff1673ffffffffffffffffffffffffffffffffffffffff163373ffffffffffffffffffffffffffffffffffffffff161461120857600080fd5b6112106124d0565b85816000018190525084816020019073ffffffffffffffffffffffffffffffffffffffff16908173ffffffffffffffffffffffffffffffffffffffff1681525050838160400181905250828160600181905250600081608001901515908115158152505060018160c0019015159081151581525050818160a0018190525080600b60008773ffffffffffffffffffffffffffffffffffffffff1673ffffffffffffffffffffffffffffffffffffffff16815260200190815260200160002060008201518160000190816112e3919061311f565b5060208201518160010160006101000a81548173ffffffffffffffffffffffffffffffffffffffff021916908373ffffffffffffffffffffffffffffffffffffffff1602179055506040820151816002019081611340919061311f565b506060820151816003019081611356919061311f565b5060808201518160040160006101000a81548160ff02191690831515021790555060a082015181600501908161138c919061311f565b5060c08201518160060160006101000a81548160ff021916908315150217905550905050600c859080600181540180825580915050600190039060005260206000200160009091909190916101000a81548173ffffffffffffffffffffffffffffffffffffffff021916908373ffffffffffffffffffffffffffffffffffffffff160217905550505050505050565b600073ffffffffffffffffffffffffffffffffffffffff16600d60003373ffffffffffffffffffffffffffffffffffffffff1673ffffffffffffffffffffffffffffffffffffffff16815260200190815260200160002060000160009054906101000a900473ffffffffffffffffffffffffffffffffffffffff1673ffffffffffffffffffffffffffffffffffffffff16036114b657600080fd5b6001600d60003373ffffffffffffffffffffffffffffffffffffffff1673ffffffffffffffffffffffffffffffffffffffff16815260200190815260200160002060030160006101000a81548160ff021916908315150217905550565b600160009054906101000a900473ffffffffffffffffffffffffffffffffffffffff1673ffffffffffffffffffffffffffffffffffffffff163373ffffffffffffffffffffffffffffffffffffffff161461156d57600080fd5b826006908161157c919061311f565b50816002908161158c919061311f565b50806003908161159c919061311f565b50505050565b6007836040516115b29190612ecd565b908152602001604051809103902060050160009054906101000a900460ff166115da57600080fd5b816007846040516115eb9190612ecd565b908152602001604051809103902060010181905550600482908060018154018082558091505060019003906000526020600020016000909190919091505560016005546116389190613220565b60058190555060016007846040516116509190612ecd565b908152602001604051809103902060030160006101000a81548160ff021916908315150217905550336007846040516116899190612ecd565b908152602001604051809103902060030160016101000a81548173ffffffffffffffffffffffffffffffffffffffff021916908373ffffffffffffffffffffffffffffffffffffffff160217905550806007846040516116e99190612ecd565b90815260200160405180910390206004019081611706919061311f565b50505050565b60606000806000806117c3600a878154811061172b5761172a612ee4565b5b90600052602060002001805461174090612f42565b80601f016020809104026020016040519081016040528092919081815260200182805461176c90612f42565b80156117b95780601f1061178e576101008083540402835291602001916117b9565b820191906000526020600020905b81548152906001019060200180831161179c57829003601f168201915b505050505061225f565b9450945094509450945091939590929450565b606060006060600080606060006007886040516117f39190612ecd565b90815260200160405180910390206000016007896040516118149190612ecd565b90815260200160405180910390206001015460078a6040516118369190612ecd565b908152602001604051809103902060020160078b6040516118579190612ecd565b908152602001604051809103902060030160009054906101000a900460ff1660078c6040516118869190612ecd565b908152602001604051809103902060030160019054906101000a900473ffffffffffffffffffffffffffffffffffffffff1660078d6040516118c89190612ecd565b908152602001604051809103902060040160078e6040516118e99190612ecd565b908152602001604051809103902060050160009054906101000a900460ff1686805461191490612f42565b80601f016020809104026020016040519081016040528092919081815260200182805461194090612f42565b801561198d5780601f106119625761010080835404028352916020019161198d565b820191906000526020600020905b81548152906001019060200180831161197057829003601f168201915b505050505096508480546119a090612f42565b80601f01602080910402602001604051908101604052809291908181526020018280546119cc90612f42565b8015611a195780601f106119ee57610100808354040283529160200191611a19565b820191906000526020600020905b8154815290600101906020018083116119fc57829003601f168201915b50505050509450818054611a2c90612f42565b80601f0160208091040260200160405190810160405280929190818152602001828054611a5890612f42565b8015611aa55780601f10611a7a57610100808354040283529160200191611aa5565b820191906000526020600020905b815481529060010190602001808311611a8857829003601f168201915b505050505091509650965096509650965096509650919395979092949650565b600060608060006060600d60008773ffffffffffffffffffffffffffffffffffffffff1673ffffffffffffffffffffffffffffffffffffffff16815260200190815260200160002060000160009054906101000a900473ffffffffffffffffffffffffffffffffffffffff16600d60008873ffffffffffffffffffffffffffffffffffffffff1673ffffffffffffffffffffffffffffffffffffffff168152602001908152602001600020600101600d60008973ffffffffffffffffffffffffffffffffffffffff1673ffffffffffffffffffffffffffffffffffffffff168152602001908152602001600020600201600d60008a73ffffffffffffffffffffffffffffffffffffffff1673ffffffffffffffffffffffffffffffffffffffff16815260200190815260200160002060030160009054906101000a900460ff16600d60008b73ffffffffffffffffffffffffffffffffffffffff1673ffffffffffffffffffffffffffffffffffffffff168152602001908152602001600020600401838054611c5390612f42565b80601f0160208091040260200160405190810160405280929190818152602001828054611c7f90612f42565b8015611ccc5780601f10611ca157610100808354040283529160200191611ccc565b820191906000526020600020905b815481529060010190602001808311611caf57829003601f168201915b50505050509350828054611cdf90612f42565b80601f0160208091040260200160405190810160405280929190818152602001828054611d0b90612f42565b8015611d585780601f10611d2d57610100808354040283529160200191611d58565b820191906000526020600020905b815481529060010190602001808311611d3b57829003601f168201915b50505050509250808054611d6b90612f42565b80601f0160208091040260200160405190810160405280929190818152602001828054611d9790612f42565b8015611de45780601f10611db957610100808354040283529160200191611de4565b820191906000526020600020905b815481529060010190602001808311611dc757829003601f168201915b505050505090509450945094509450945091939590929450565b60606000606080600060606000600b60008973ffffffffffffffffffffffffffffffffffffffff1673ffffffffffffffffffffffffffffffffffffffff168152602001908152602001600020600001600b60008a73ffffffffffffffffffffffffffffffffffffffff1673ffffffffffffffffffffffffffffffffffffffff16815260200190815260200160002060010160009054906101000a900473ffffffffffffffffffffffffffffffffffffffff16600b60008b73ffffffffffffffffffffffffffffffffffffffff1673ffffffffffffffffffffffffffffffffffffffff168152602001908152602001600020600201600b60008c73ffffffffffffffffffffffffffffffffffffffff1673ffffffffffffffffffffffffffffffffffffffff168152602001908152602001600020600301600b60008d73ffffffffffffffffffffffffffffffffffffffff1673ffffffffffffffffffffffffffffffffffffffff16815260200190815260200160002060040160009054906101000a900460ff16600b60008e73ffffffffffffffffffffffffffffffffffffffff1673ffffffffffffffffffffffffffffffffffffffff168152602001908152602001600020600501600b60008f73ffffffffffffffffffffffffffffffffffffffff1673ffffffffffffffffffffffffffffffffffffffff16815260200190815260200160002060060160009054906101000a900460ff1686805461202290612f42565b80601f016020809104026020016040519081016040528092919081815260200182805461204e90612f42565b801561209b5780601f106120705761010080835404028352916020019161209b565b820191906000526020600020905b81548152906001019060200180831161207e57829003601f168201915b505050505096508480546120ae90612f42565b80601f01602080910402602001604051908101604052809291908181526020018280546120da90612f42565b80156121275780601f106120fc57610100808354040283529160200191612127565b820191906000526020600020905b81548152906001019060200180831161210a57829003601f168201915b5050505050945083805461213a90612f42565b80601f016020809104026020016040519081016040528092919081815260200182805461216690612f42565b80156121b35780601f10612188576101008083540402835291602001916121b3565b820191906000526020600020905b81548152906001019060200180831161219657829003601f168201915b505050505093508180546121c690612f42565b80601f01602080910402602001604051908101604052809291908181526020018280546121f290612f42565b801561223f5780601f106122145761010080835404028352916020019161223f565b820191906000526020600020905b81548152906001019060200180831161222257829003601f168201915b505050505091509650965096509650965096509650919395979092949650565b60606000806000806009866040516122779190612ecd565b90815260200160405180910390206000016009876040516122989190612ecd565b908152602001604051809103902060010160009054906101000a900473ffffffffffffffffffffffffffffffffffffffff166009886040516122da9190612ecd565b9081526020016040518091039020600201546009896040516122fc9190612ecd565b908152602001604051809103902060030160009054906101000a900460ff1660098a60405161232b9190612ecd565b908152602001604051809103902060030160019054906101000a900460ff1684805461235690612f42565b80601f016020809104026020016040519081016040528092919081815260200182805461238290612f42565b80156123cf5780601f106123a4576101008083540402835291602001916123cf565b820191906000526020600020905b8154815290600101906020018083116123b257829003601f168201915b505050505094509450945094509450945091939590929450565b6040518060a0016040528060608152602001600073ffffffffffffffffffffffffffffffffffffffff168152602001600081526020016000151581526020016000151581525090565b6040518060a00160405280600073ffffffffffffffffffffffffffffffffffffffff1681526020016060815260200160608152602001600015158152602001606081525090565b6040518060e00160405280606081526020016000815260200160608152602001600015158152602001600073ffffffffffffffffffffffffffffffffffffffff168152602001606081526020016000151581525090565b6040518060e0016040528060608152602001600073ffffffffffffffffffffffffffffffffffffffff1681526020016060815260200160608152602001600015158152602001606081526020016000151581525090565b6000819050919050565b61253a81612527565b82525050565b60006020820190506125556000830184612531565b92915050565b6000604051905090565b600080fd5b600080fd5b600080fd5b600080fd5b6000601f19601f8301169050919050565b7f4e487b7100000000000000000000000000000000000000000000000000000000600052604160045260246000fd5b6125c282612579565b810181811067ffffffffffffffff821117156125e1576125e061258a565b5b80604052505050565b60006125f461255b565b905061260082826125b9565b919050565b600067ffffffffffffffff8211156126205761261f61258a565b5b61262982612579565b9050602081019050919050565b82818337600083830152505050565b600061265861265384612605565b6125ea565b90508281526020810184848401111561267457612673612574565b5b61267f848285612636565b509392505050565b600082601f83011261269c5761269b61256f565b5b81356126ac848260208601612645565b91505092915050565b6000602082840312156126cb576126ca612565565b5b600082013567ffffffffffffffff8111156126e9576126e861256a565b5b6126f584828501612687565b91505092915050565b61270781612527565b811461271257600080fd5b50565b600081359050612724816126fe565b92915050565b6000602082840312156127405761273f612565565b5b600061274e84828501612715565b91505092915050565b600081519050919050565b600082825260208201905092915050565b60005b83811015612791578082015181840152602081019050612776565b60008484015250505050565b60006127a882612757565b6127b28185612762565b93506127c2818560208601612773565b6127cb81612579565b840191505092915050565b60008115159050919050565b6127eb816127d6565b82525050565b600073ffffffffffffffffffffffffffffffffffffffff82169050919050565b600061281c826127f1565b9050919050565b61282c81612811565b82525050565b600060e082019050818103600083015261284c818a61279d565b905061285b6020830189612531565b818103604083015261286d818861279d565b905061287c60608301876127e2565b6128896080830186612823565b81810360a083015261289b818561279d565b90506128aa60c08301846127e2565b98975050505050505050565b600060a0820190506128cb6000830188612823565b81810360208301526128dd818761279d565b905081810360408301526128f1818661279d565b905061290060608301856127e2565b8181036080830152612912818461279d565b90509695505050505050565b61292781612811565b811461293257600080fd5b50565b6000813590506129448161291e565b92915050565b60008060006060848603121561296357612962612565565b5b600084013567ffffffffffffffff8111156129815761298061256a565b5b61298d86828701612687565b935050602061299e86828701612935565b92505060406129af86828701612715565b9150509250925092565b600060c0820190506129ce6000830189612823565b81810360208301526129e0818861279d565b905081810360408301526129f4818761279d565b90508181036060830152612a08818661279d565b9050612a176080830185612531565b612a2460a0830184612531565b979650505050505050565b60008060008060808587031215612a4957612a48612565565b5b6000612a5787828801612935565b945050602085013567ffffffffffffffff811115612a7857612a7761256a565b5b612a8487828801612687565b935050604085013567ffffffffffffffff811115612aa557612aa461256a565b5b612ab187828801612687565b925050606085013567ffffffffffffffff811115612ad257612ad161256a565b5b612ade87828801612687565b91505092959194509250565b600060e0820190508181036000830152612b04818a61279d565b9050612b136020830189612823565b8181036040830152612b25818861279d565b90508181036060830152612b39818761279d565b9050612b4860808301866127e2565b81810360a0830152612b5a818561279d565b9050612b6960c08301846127e2565b98975050505050505050565b60008060408385031215612b8c57612b8b612565565b5b600083013567ffffffffffffffff811115612baa57612ba961256a565b5b612bb685828601612687565b925050602083013567ffffffffffffffff811115612bd757612bd661256a565b5b612be385828601612687565b9150509250929050565b600060208284031215612c0357612c02612565565b5b6000612c1184828501612935565b91505092915050565b600080600080600060a08688031215612c3657612c35612565565b5b600086013567ffffffffffffffff811115612c5457612c5361256a565b5b612c6088828901612687565b9550506020612c7188828901612935565b945050604086013567ffffffffffffffff811115612c9257612c9161256a565b5b612c9e88828901612687565b935050606086013567ffffffffffffffff811115612cbf57612cbe61256a565b5b612ccb88828901612687565b925050608086013567ffffffffffffffff811115612cec57612ceb61256a565b5b612cf888828901612687565b9150509295509295909350565b600080600060608486031215612d1e57612d1d612565565b5b600084013567ffffffffffffffff811115612d3c57612d3b61256a565b5b612d4886828701612687565b935050602084013567ffffffffffffffff811115612d6957612d6861256a565b5b612d7586828701612687565b925050604084013567ffffffffffffffff811115612d9657612d9561256a565b5b612da286828701612687565b9150509250925092565b600080600060608486031215612dc557612dc4612565565b5b600084013567ffffffffffffffff811115612de357612de261256a565b5b612def86828701612687565b9350506020612e0086828701612715565b925050604084013567ffffffffffffffff811115612e2157612e2061256a565b5b612e2d86828701612687565b9150509250925092565b600060a0820190508181036000830152612e51818861279d565b9050612e606020830187612823565b612e6d6040830186612531565b612e7a60608301856127e2565b612e8760808301846127e2565b9695505050505050565b600081905092915050565b6000612ea782612757565b612eb18185612e91565b9350612ec1818560208601612773565b80840191505092915050565b6000612ed98284612e9c565b915081905092915050565b7f4e487b7100000000000000000000000000000000000000000000000000000000600052603260045260246000fd5b7f4e487b7100000000000000000000000000000000000000000000000000000000600052602260045260246000fd5b60006002820490506001821680612f5a57607f821691505b602082108103612f6d57612f6c612f13565b5b50919050565b60008190508160005260206000209050919050565b60006020601f8301049050919050565b600082821b905092915050565b600060088302612fd57fffffffffffffffffffffffffffffffffffffffffffffffffffffffffffffffff82612f98565b612fdf8683612f98565b95508019841693508086168417925050509392505050565b6000819050919050565b600061301c61301761301284612527565b612ff7565b612527565b9050919050565b6000819050919050565b61303683613001565b61304a61304282613023565b848454612fa5565b825550505050565b600090565b61305f613052565b61306a81848461302d565b505050565b5b8181101561308e57613083600082613057565b600181019050613070565b5050565b601f8211156130d3576130a481612f73565b6130ad84612f88565b810160208510156130bc578190505b6130d06130c885612f88565b83018261306f565b50505b505050565b600082821c905092915050565b60006130f6600019846008026130d8565b1980831691505092915050565b600061310f83836130e5565b9150826002028217905092915050565b61312882612757565b67ffffffffffffffff8111156131415761314061258a565b5b61314b8254612f42565b613156828285613092565b600060209050601f8311600181146131895760008415613177578287015190505b6131818582613103565b8655506131e9565b601f19841661319786612f73565b60005b828110156131bf5784890151825560018201915060208501945060208101905061319a565b868310156131dc57848901516131d8601f8916826130e5565b8355505b6001600288020188555050505b505050505050565b7f4e487b7100000000000000000000000000000000000000000000000000000000600052601160045260246000fd5b600061322b82612527565b915061323683612527565b925082820190508082111561324e5761324d6131f1565b5b9291505056fea26469706673582212207b7062840c1b3a7bfbb2ec4cfa76f90a01f9566cee6fa6057cc2e4ff69ac4cf264736f6c6343000813003360806040523480156200001157600080fd5b5060405162000de038038062000de08339818101604052810190620000379190620002f1565b846000806101000a81548173ffffffffffffffffffffffffffffffffffffffff021916908373ffffffffffffffffffffffffffffffffffffffff160217905550826001908162000088919062000621565b5083600260006101000a81548173ffffffffffffffffffffffffffffffffffffffff021916908373ffffffffffffffffffffffffffffffffffffffff1602179055508160039081620000db919062000621565b508060049081620000ed919062000621565b50505050505062000708565b6000604051905090565b600080fd5b600080fd5b600073ffffffffffffffffffffffffffffffffffffffff82169050919050565b60006200013a826200010d565b9050919050565b6200014c816200012d565b81146200015857600080fd5b50565b6000815190506200016c8162000141565b92915050565b600080fd5b600080fd5b6000601f19601f8301169050919050565b7f4e487b7100000000000000000000000000000000000000000000000000000000600052604160045260246000fd5b620001c7826200017c565b810181811067ffffffffffffffff82111715620001e957620001e86200018d565b5b80604052505050565b6000620001fe620000f9565b90506200020c8282620001bc565b919050565b600067ffffffffffffffff8211156200022f576200022e6200018d565b5b6200023a826200017c565b9050602081019050919050565b60005b83811015620002675780820151818401526020810190506200024a565b60008484015250505050565b60006200028a620002848462000211565b620001f2565b905082815260208101848484011115620002a957620002a862000177565b5b620002b684828562000247565b509392505050565b600082601f830112620002d657620002d562000172565b5b8151620002e884826020860162000273565b91505092915050565b600080600080600060a0868803121562000310576200030f62000103565b5b600062000320888289016200015b565b955050602062000333888289016200015b565b945050604086015167ffffffffffffffff81111562000357576200035662000108565b5b6200036588828901620002be565b935050606086015167ffffffffffffffff81111562000389576200038862000108565b5b6200039788828901620002be565b925050608086015167ffffffffffffffff811115620003bb57620003ba62000108565b5b620003c988828901620002be565b9150509295509295909350565b600081519050919050565b7f4e487b7100000000000000000000000000000000000000000000000000000000600052602260045260246000fd5b600060028204905060018216806200042957607f821691505b6020821081036200043f576200043e620003e1565b5b50919050565b60008190508160005260206000209050919050565b60006020601f8301049050919050565b600082821b905092915050565b600060088302620004a97fffffffffffffffffffffffffffffffffffffffffffffffffffffffffffffffff826200046a565b620004b586836200046a565b95508019841693508086168417925050509392505050565b6000819050919050565b6000819050919050565b600062000502620004fc620004f684620004cd565b620004d7565b620004cd565b9050919050565b6000819050919050565b6200051e83620004e1565b620005366200052d8262000509565b84845462000477565b825550505050565b600090565b6200054d6200053e565b6200055a81848462000513565b505050565b5b8181101562000582576200057660008262000543565b60018101905062000560565b5050565b601f821115620005d1576200059b8162000445565b620005a6846200045a565b81016020851015620005b6578190505b620005ce620005c5856200045a565b8301826200055f565b50505b505050565b600082821c905092915050565b6000620005f660001984600802620005d6565b1980831691505092915050565b6000620006118383620005e3565b9150826002028217905092915050565b6200062c82620003d6565b67ffffffffffffffff8111156200064857620006476200018d565b5b62000654825462000410565b6200066182828562000586565b600060209050601f83116001811462000699576000841562000684578287015190505b62000690858262000603565b86555062000700565b601f198416620006a98662000445565b60005b82811015620006d357848901518255600182019150602085019450602081019050620006ac565b86831015620006f35784890151620006ef601f891682620005e3565b8355505b6001600288020188555050505b505050505050565b6106c880620007186000396000f3fe608060405234801561001057600080fd5b506004361061004b5760003560e01c8062ac80951461005057806352b9b9731461006c57806359420e481461008a578063e894d0a2146100ba575b600080fd5b61006a60048036038101906100659190610435565b6100db565b005b61007461019b565b604051610081919061047b565b60405180910390f35b6100a4600480360381019061009f91906104c2565b6101a8565b6040516100b191906104fe565b60405180910390f35b6100c26101f0565b6040516100d294939291906105a9565b60405180910390f35b600260009054906101000a900473ffffffffffffffffffffffffffffffffffffffff1673ffffffffffffffffffffffffffffffffffffffff163373ffffffffffffffffffffffffffffffffffffffff161461013557600080fd5b6005819080600181540180825580915050600190039060005260206000200160009091909190916101000a81548173ffffffffffffffffffffffffffffffffffffffff021916908373ffffffffffffffffffffffffffffffffffffffff16021790555050565b6000600580549050905090565b6000600582815481106101be576101bd610603565b5b9060005260206000200160009054906101000a900473ffffffffffffffffffffffffffffffffffffffff169050919050565b606060006060806001600260009054906101000a900473ffffffffffffffffffffffffffffffffffffffff166003600483805461022c90610661565b80601f016020809104026020016040519081016040528092919081815260200182805461025890610661565b80156102a55780601f1061027a576101008083540402835291602001916102a5565b820191906000526020600020905b81548152906001019060200180831161028857829003601f168201915b505050505093508180546102b890610661565b80601f01602080910402602001604051908101604052809291908181526020018280546102e490610661565b80156103315780601f1061030657610100808354040283529160200191610331565b820191906000526020600020905b81548152906001019060200180831161031457829003601f168201915b5050505050915080805461034490610661565b80601f016020809104026020016040519081016040528092919081815260200182805461037090610661565b80156103bd5780601f10610392576101008083540402835291602001916103bd565b820191906000526020600020905b8154815290600101906020018083116103a057829003601f168201915b50505050509050935093509350935090919293565b600080fd5b600073ffffffffffffffffffffffffffffffffffffffff82169050919050565b6000610402826103d7565b9050919050565b610412816103f7565b811461041d57600080fd5b50565b60008135905061042f81610409565b92915050565b60006020828403121561044b5761044a6103d2565b5b600061045984828501610420565b91505092915050565b6000819050919050565b61047581610462565b82525050565b6000602082019050610490600083018461046c565b92915050565b61049f81610462565b81146104aa57600080fd5b50565b6000813590506104bc81610496565b92915050565b6000602082840312156104d8576104d76103d2565b5b60006104e6848285016104ad565b91505092915050565b6104f8816103f7565b82525050565b600060208201905061051360008301846104ef565b92915050565b600081519050919050565b600082825260208201905092915050565b60005b83811015610553578082015181840152602081019050610538565b60008484015250505050565b6000601f19601f8301169050919050565b600061057b82610519565b6105858185610524565b9350610595818560208601610535565b61059e8161055f565b840191505092915050565b600060808201905081810360008301526105c38187610570565b90506105d260208301866104ef565b81810360408301526105e48185610570565b905081810360608301526105f88184610570565b905095945050505050565b7f4e487b7100000000000000000000000000000000000000000000000000000000600052603260045260246000fd5b7f4e487b7100000000000000000000000000000000000000000000000000000000600052602260045260246000fd5b6000600282049050600182168061067957607f821691505b60208210810361068c5761068b610632565b5b5091905056fea2646970667358221220b34e1551795c31e7450dd23ae1de566d39bea6869d880be8689b2e7365cefb4b64736f6c63430008130033a2646970667358221220f83c8c4350e21ff9e786cea6c6970e37cc3a279f48f3f6bb2f6f3601f6f410de64736f6c63430008130033",
  "immutableReferences": {},
  "source": "// SPDX-License-Identifier: MIT\n\npragma solidity >=0.5.0 <0.9.0;\nimport \"./Employee.sol\";\nimport \"./OrganizationEndorser.sol\";\n\ncontract Admin {\n  address public owner;\n\n  constructor() {\n    owner = msg.sender;\n  }\n\n  modifier onlyOwner() {\n    require(msg.sender == owner);\n    _;\n  }\n\n  mapping(address => address) registeredEmployeesmap;\n  mapping(address => address) registeredOrganizationmap;\n  address[] registeredEmployees;\n  address[] registeredOrganization;\n\n  function registerUser(\n    address EthAddress,\n    string memory Name,\n    string memory Location,\n    string memory Description,\n    uint256 Role\n  ) public onlyOwner {\n    if (Role == 1) {\n      Employee newEmployee = new Employee(\n        owner,\n        EthAddress,\n        Name,\n        Location,\n        Description\n      );\n      registeredEmployeesmap[EthAddress] = address(newEmployee);\n      registeredEmployees.push(EthAddress);\n    } else {\n      OrganizationEndorser newOrganizationEndorser = new OrganizationEndorser(\n        owner,\n        EthAddress,\n        Name,\n        Location,\n        Description\n      );\n      registeredOrganizationmap[EthAddress] = address(newOrganizationEndorser);\n      registeredOrganization.push(EthAddress);\n    }\n  }\n\n  /****************************************************************USER SECTION**************************************************/\n\n  function isEmployee(address _employeeAddress) public view returns (bool) {\n    return registeredEmployeesmap[_employeeAddress] != address(0x0);\n  }\n\n  function isOrganizationEndorser(address _organizationEndorser)\n    public\n    view\n    returns (bool)\n  {\n    return registeredOrganizationmap[_organizationEndorser] != address(0x0);\n  }\n\n  function employeeCount() public view returns (uint256) {\n    return registeredEmployees.length;\n  }\n\n  function getEmployeeContractByAddress(address _employee)\n    public\n    view\n    returns (address)\n  {\n    return registeredEmployeesmap[_employee];\n  }\n\n  function getEmployeeContractByIndex(uint256 index)\n    public\n    view\n    returns (address)\n  {\n    return getEmployeeContractByAddress(registeredEmployees[index]);\n  }\n\n  function OrganizationEndorserCount() public view returns (uint256) {\n    return registeredOrganization.length;\n  }\n\n  function getOrganizationContractByAddress(address _organization)\n    public\n    view\n    returns (address)\n  {\n    return registeredOrganizationmap[_organization];\n  }\n\n  function getOrganizationContractByIndex(uint256 index)\n    public\n    view\n    returns (address)\n  {\n    return getOrganizationContractByAddress(registeredOrganization[index]);\n  }\n}\n",
  "sourcePath": "D:\\Projects-All\\SkillVio   - Blockchain\\backend\\contracts\\Admin.sol",
  "compiler": {
    "name": "solc",
    "version": "0.8.19+commit.7dd6d404.Emscripten.clang"
  },
  "schemaVersion": "3.4.13",
  "updatedAt": "2023-08-13T09:19:26.270Z",
  "networkType": "ethereum",
  "devdoc": {
    "kind": "dev",
    "methods": {},
    "version": 1
  },
  "userdoc": {
    "kind": "user",
    "methods": {},
    "version": 1
  }
}