{
  "contractName": "Skills",
  "abi": [
    {
      "inputs": [
        {
          "internalType": "string",
          "name": "_name",
          "type": "string"
        },
        {
          "internalType": "address",
          "name": "_employee",
          "type": "address"
        }
      ],
      "name": "addEmployeeToSkill",
      "outputs": [],
      "stateMutability": "nonpayable",
      "type": "function"
    },
    {
      "inputs": [],
      "name": "getSkillLength",
      "outputs": [
        {
          "internalType": "uint256",
          "name": "",
          "type": "uint256"
        }
      ],
      "stateMutability": "view",
      "type": "function",
      "constant": true
    },
    {
      "inputs": [
        {
          "internalType": "uint256",
          "name": "index",
          "type": "uint256"
        }
      ],
      "name": "getSkillsByIndex",
      "outputs": [
        {
          "internalType": "string",
          "name": "",
          "type": "string"
        }
      ],
      "stateMutability": "view",
      "type": "function",
      "constant": true
    },
    {
      "inputs": [
        {
          "internalType": "uint256",
          "name": "index",
          "type": "uint256"
        }
      ],
      "name": "getTotalEmployeeInSkillByIndex",
      "outputs": [
        {
          "internalType": "uint256",
          "name": "",
          "type": "uint256"
        }
      ],
      "stateMutability": "view",
      "type": "function",
      "constant": true
    },
    {
      "inputs": [
        {
          "internalType": "string",
          "name": "_name",
          "type": "string"
        }
      ],
      "name": "getTotalEmployeeInSkillByName",
      "outputs": [
        {
          "internalType": "uint256",
          "name": "",
          "type": "uint256"
        }
      ],
      "stateMutability": "view",
      "type": "function",
      "constant": true
    },
    {
      "inputs": [
        {
          "internalType": "uint256",
          "name": "skill_index",
          "type": "uint256"
        },
        {
          "internalType": "uint256",
          "name": "emp_index",
          "type": "uint256"
        }
      ],
      "name": "getEmployeeInSkillByIndex",
      "outputs": [
        {
          "internalType": "address",
          "name": "",
          "type": "address"
        }
      ],
      "stateMutability": "view",
      "type": "function",
      "constant": true
    },
    {
      "inputs": [
        {
          "internalType": "string",
          "name": "_name",
          "type": "string"
        },
        {
          "internalType": "uint256",
          "name": "emp_index",
          "type": "uint256"
        }
      ],
      "name": "getEmployeeBySkillName",
      "outputs": [
        {
          "internalType": "address",
          "name": "",
          "type": "address"
        }
      ],
      "stateMutability": "view",
      "type": "function",
      "constant": true
    }
  ],
  "bytecode": "0x608060405234801561001057600080fd5b50610d21806100206000396000f3fe608060405234801561001057600080fd5b506004361061007d5760003560e01c80638673de531161005b5780638673de53146100ec578063bb50d7721461011c578063e518dc3c1461014c578063f4cee6171461017c5761007d565b80632e2acc4c14610082578063359c410f1461009e5780633dc1a6bc146100ce575b600080fd5b61009c60048036038101906100979190610658565b6101ac565b005b6100b860048036038101906100b391906106ea565b61028d565b6040516100c59190610726565b60405180910390f35b6100d66102d4565b6040516100e39190610726565b60405180910390f35b610106600480360381019061010191906106ea565b6102e1565b60405161011391906107c0565b60405180910390f35b610136600480360381019061013191906107e2565b610391565b6040516101439190610831565b60405180910390f35b6101666004803603810190610161919061084c565b610412565b6040516101739190610726565b60405180910390f35b61019660048036038101906101919190610895565b61043c565b6040516101a39190610831565b60405180910390f35b600080836040516101bd919061092d565b9081526020016040518091039020805490500361020a576001829080600181540180825580915050600190039060005260206000200160009091909190915090816102089190610b50565b505b60008260405161021a919061092d565b9081526020016040518091039020819080600181540180825580915050600190039060005260206000200160009091909190916101000a81548173ffffffffffffffffffffffffffffffffffffffff021916908373ffffffffffffffffffffffffffffffffffffffff1602179055505050565b600080600183815481106102a4576102a3610c22565b5b906000526020600020016040516102bb9190610cd4565b9081526020016040518091039020805490509050919050565b6000600180549050905090565b6060600182815481106102f7576102f6610c22565b5b90600052602060002001805461030c90610973565b80601f016020809104026020016040519081016040528092919081815260200182805461033890610973565b80156103855780601f1061035a57610100808354040283529160200191610385565b820191906000526020600020905b81548152906001019060200180831161036857829003601f168201915b50505050509050919050565b600080600184815481106103a8576103a7610c22565b5b906000526020600020016040516103bf9190610cd4565b908152602001604051809103902082815481106103df576103de610c22565b5b9060005260206000200160009054906101000a900473ffffffffffffffffffffffffffffffffffffffff16905092915050565b60008082604051610423919061092d565b9081526020016040518091039020805490509050919050565b6000808360405161044d919061092d565b9081526020016040518091039020828154811061046d5761046c610c22565b5b9060005260206000200160009054906101000a900473ffffffffffffffffffffffffffffffffffffffff16905092915050565b6000604051905090565b600080fd5b600080fd5b600080fd5b600080fd5b6000601f19601f8301169050919050565b7f4e487b7100000000000000000000000000000000000000000000000000000000600052604160045260246000fd5b610507826104be565b810181811067ffffffffffffffff82111715610526576105256104cf565b5b80604052505050565b60006105396104a0565b905061054582826104fe565b919050565b600067ffffffffffffffff821115610565576105646104cf565b5b61056e826104be565b9050602081019050919050565b82818337600083830152505050565b600061059d6105988461054a565b61052f565b9050828152602081018484840111156105b9576105b86104b9565b5b6105c484828561057b565b509392505050565b600082601f8301126105e1576105e06104b4565b5b81356105f184826020860161058a565b91505092915050565b600073ffffffffffffffffffffffffffffffffffffffff82169050919050565b6000610625826105fa565b9050919050565b6106358161061a565b811461064057600080fd5b50565b6000813590506106528161062c565b92915050565b6000806040838503121561066f5761066e6104aa565b5b600083013567ffffffffffffffff81111561068d5761068c6104af565b5b610699858286016105cc565b92505060206106aa85828601610643565b9150509250929050565b6000819050919050565b6106c7816106b4565b81146106d257600080fd5b50565b6000813590506106e4816106be565b92915050565b600060208284031215610700576106ff6104aa565b5b600061070e848285016106d5565b91505092915050565b610720816106b4565b82525050565b600060208201905061073b6000830184610717565b92915050565b600081519050919050565b600082825260208201905092915050565b60005b8381101561077b578082015181840152602081019050610760565b60008484015250505050565b600061079282610741565b61079c818561074c565b93506107ac81856020860161075d565b6107b5816104be565b840191505092915050565b600060208201905081810360008301526107da8184610787565b905092915050565b600080604083850312156107f9576107f86104aa565b5b6000610807858286016106d5565b9250506020610818858286016106d5565b9150509250929050565b61082b8161061a565b82525050565b60006020820190506108466000830184610822565b92915050565b600060208284031215610862576108616104aa565b5b600082013567ffffffffffffffff8111156108805761087f6104af565b5b61088c848285016105cc565b91505092915050565b600080604083850312156108ac576108ab6104aa565b5b600083013567ffffffffffffffff8111156108ca576108c96104af565b5b6108d6858286016105cc565b92505060206108e7858286016106d5565b9150509250929050565b600081905092915050565b600061090782610741565b61091181856108f1565b935061092181856020860161075d565b80840191505092915050565b600061093982846108fc565b915081905092915050565b7f4e487b7100000000000000000000000000000000000000000000000000000000600052602260045260246000fd5b6000600282049050600182168061098b57607f821691505b60208210810361099e5761099d610944565b5b50919050565b60008190508160005260206000209050919050565b60006020601f8301049050919050565b600082821b905092915050565b600060088302610a067fffffffffffffffffffffffffffffffffffffffffffffffffffffffffffffffff826109c9565b610a1086836109c9565b95508019841693508086168417925050509392505050565b6000819050919050565b6000610a4d610a48610a43846106b4565b610a28565b6106b4565b9050919050565b6000819050919050565b610a6783610a32565b610a7b610a7382610a54565b8484546109d6565b825550505050565b600090565b610a90610a83565b610a9b818484610a5e565b505050565b5b81811015610abf57610ab4600082610a88565b600181019050610aa1565b5050565b601f821115610b0457610ad5816109a4565b610ade846109b9565b81016020851015610aed578190505b610b01610af9856109b9565b830182610aa0565b50505b505050565b600082821c905092915050565b6000610b2760001984600802610b09565b1980831691505092915050565b6000610b408383610b16565b9150826002028217905092915050565b610b5982610741565b67ffffffffffffffff811115610b7257610b716104cf565b5b610b7c8254610973565b610b87828285610ac3565b600060209050601f831160018114610bba5760008415610ba8578287015190505b610bb28582610b34565b865550610c1a565b601f198416610bc8866109a4565b60005b82811015610bf057848901518255600182019150602085019450602081019050610bcb565b86831015610c0d5784890151610c09601f891682610b16565b8355505b6001600288020188555050505b505050505050565b7f4e487b7100000000000000000000000000000000000000000000000000000000600052603260045260246000fd5b60008154610c5e81610973565b610c6881866108f1565b94506001821660008114610c835760018114610c9857610ccb565b60ff1983168652811515820286019350610ccb565b610ca1856109a4565b60005b83811015610cc357815481890152600182019150602081019050610ca4565b838801955050505b50505092915050565b6000610ce08284610c51565b91508190509291505056fea26469706673582212204aca1591dc2f1000551944fa5db47f18a600e77a40bda387583ccaacc98bd6d964736f6c63430008130033",
  "immutableReferences": {},
  "source": "// SPDX-License-Identifier: MIT\n\npragma solidity >=0.5.0 <0.9.0;\n\ncontract Skills {\n  mapping(string => address[]) skillmap;\n  string[] skill;\n\n  function addEmployeeToSkill(string memory _name, address _employee) public {\n    if (skillmap[_name].length == 0) {\n      skill.push(_name);\n    }\n    skillmap[_name].push(_employee);\n  }\n\n  function getSkillLength() public view returns (uint256) {\n    return skill.length;\n  }\n\n  function getSkillsByIndex(uint256 index) public view returns (string memory) {\n    return skill[index];\n  }\n\n  function getTotalEmployeeInSkillByIndex(uint256 index)\n    public\n    view\n    returns (uint256)\n  {\n    return skillmap[skill[index]].length;\n  }\n\n  function getTotalEmployeeInSkillByName(string memory _name)\n    public\n    view\n    returns (uint256)\n  {\n    return skillmap[_name].length;\n  }\n\n  function getEmployeeInSkillByIndex(uint256 skill_index, uint256 emp_index)\n    public\n    view\n    returns (address)\n  {\n    return skillmap[skill[skill_index]][emp_index];\n  }\n\n  function getEmployeeBySkillName(string memory _name, uint256 emp_index)\n    public\n    view\n    returns (address)\n  {\n    return skillmap[_name][emp_index];\n  }\n}\n",
  "sourcePath": "D:\\Projects-All\\SkillVio   - Blockchain\\backend\\contracts\\Skills.sol",
  "compiler": {
    "name": "solc",
    "version": "0.8.19+commit.7dd6d404.Emscripten.clang"
  },
  "schemaVersion": "3.4.13",
  "updatedAt": "2023-08-13T09:19:26.622Z",
  "networkType": "ethereum",
  "devdoc": {
    "kind": "dev",
    "methods": {},
    "version": 1
  },
  "userdoc": {
    "kind": "user",
    "methods": {},
    "version": 1
  }
}